{
  "_format": "hh-sol-artifact-1",
  "contractName": "MyToken",
  "sourceName": "contracts/Owner.sol",
  "abi": [
    {
      "inputs": [],
      "stateMutability": "nonpayable",
      "type": "constructor"
    },
    {
      "anonymous": false,
      "inputs": [
        {
          "indexed": true,
          "internalType": "address",
          "name": "owner",
          "type": "address"
        },
        {
          "indexed": true,
          "internalType": "address",
          "name": "approved",
          "type": "address"
        },
        {
          "indexed": true,
          "internalType": "uint256",
          "name": "tokenId",
          "type": "uint256"
        }
      ],
      "name": "Approval",
      "type": "event"
    },
    {
      "anonymous": false,
      "inputs": [
        {
          "indexed": true,
          "internalType": "address",
          "name": "owner",
          "type": "address"
        },
        {
          "indexed": true,
          "internalType": "address",
          "name": "operator",
          "type": "address"
        },
        {
          "indexed": false,
          "internalType": "bool",
          "name": "approved",
          "type": "bool"
        }
      ],
      "name": "ApprovalForAll",
      "type": "event"
    },
    {
      "anonymous": false,
      "inputs": [
        {
          "indexed": true,
          "internalType": "address",
          "name": "previousOwner",
          "type": "address"
        },
        {
          "indexed": true,
          "internalType": "address",
          "name": "newOwner",
          "type": "address"
        }
      ],
      "name": "OwnershipTransferred",
      "type": "event"
    },
    {
      "anonymous": false,
      "inputs": [
        {
          "indexed": true,
          "internalType": "address",
          "name": "from",
          "type": "address"
        },
        {
          "indexed": true,
          "internalType": "address",
          "name": "to",
          "type": "address"
        },
        {
          "indexed": true,
          "internalType": "uint256",
          "name": "tokenId",
          "type": "uint256"
        }
      ],
      "name": "Transfer",
      "type": "event"
    },
    {
      "inputs": [
        {
          "internalType": "address",
          "name": "to",
          "type": "address"
        },
        {
          "internalType": "uint256",
          "name": "tokenId",
          "type": "uint256"
        }
      ],
      "name": "approve",
      "outputs": [],
      "stateMutability": "nonpayable",
      "type": "function"
    },
    {
      "inputs": [
        {
          "internalType": "address",
          "name": "owner",
          "type": "address"
        }
      ],
      "name": "balanceOf",
      "outputs": [
        {
          "internalType": "uint256",
          "name": "",
          "type": "uint256"
        }
      ],
      "stateMutability": "view",
      "type": "function"
    },
    {
      "inputs": [
        {
          "internalType": "uint256",
          "name": "tokenId",
          "type": "uint256"
        }
      ],
      "name": "burn",
      "outputs": [],
      "stateMutability": "nonpayable",
      "type": "function"
    },
    {
      "inputs": [
        {
          "internalType": "uint256",
          "name": "tokenId",
          "type": "uint256"
        }
      ],
      "name": "getApproved",
      "outputs": [
        {
          "internalType": "address",
          "name": "",
          "type": "address"
        }
      ],
      "stateMutability": "view",
      "type": "function"
    },
    {
      "inputs": [
        {
          "internalType": "address",
          "name": "owner",
          "type": "address"
        },
        {
          "internalType": "address",
          "name": "operator",
          "type": "address"
        }
      ],
      "name": "isApprovedForAll",
      "outputs": [
        {
          "internalType": "bool",
          "name": "",
          "type": "bool"
        }
      ],
      "stateMutability": "view",
      "type": "function"
    },
    {
      "inputs": [],
      "name": "name",
      "outputs": [
        {
          "internalType": "string",
          "name": "",
          "type": "string"
        }
      ],
      "stateMutability": "view",
      "type": "function"
    },
    {
      "inputs": [],
      "name": "owner",
      "outputs": [
        {
          "internalType": "address",
          "name": "",
          "type": "address"
        }
      ],
      "stateMutability": "view",
      "type": "function"
    },
    {
      "inputs": [
        {
          "internalType": "uint256",
          "name": "tokenId",
          "type": "uint256"
        }
      ],
      "name": "ownerOf",
      "outputs": [
        {
          "internalType": "address",
          "name": "",
          "type": "address"
        }
      ],
      "stateMutability": "view",
      "type": "function"
    },
    {
      "inputs": [],
      "name": "renounceOwnership",
      "outputs": [],
      "stateMutability": "nonpayable",
      "type": "function"
    },
    {
      "inputs": [
        {
          "internalType": "address",
          "name": "to",
          "type": "address"
        },
        {
          "internalType": "uint256",
          "name": "tokenId",
          "type": "uint256"
        }
      ],
      "name": "safeMint",
      "outputs": [],
      "stateMutability": "nonpayable",
      "type": "function"
    },
    {
      "inputs": [
        {
          "internalType": "address",
          "name": "from",
          "type": "address"
        },
        {
          "internalType": "address",
          "name": "to",
          "type": "address"
        },
        {
          "internalType": "uint256",
          "name": "tokenId",
          "type": "uint256"
        }
      ],
      "name": "safeTransferFrom",
      "outputs": [],
      "stateMutability": "nonpayable",
      "type": "function"
    },
    {
      "inputs": [
        {
          "internalType": "address",
          "name": "from",
          "type": "address"
        },
        {
          "internalType": "address",
          "name": "to",
          "type": "address"
        },
        {
          "internalType": "uint256",
          "name": "tokenId",
          "type": "uint256"
        },
        {
          "internalType": "bytes",
          "name": "_data",
          "type": "bytes"
        }
      ],
      "name": "safeTransferFrom",
      "outputs": [],
      "stateMutability": "nonpayable",
      "type": "function"
    },
    {
      "inputs": [
        {
          "internalType": "address",
          "name": "operator",
          "type": "address"
        },
        {
          "internalType": "bool",
          "name": "approved",
          "type": "bool"
        }
      ],
      "name": "setApprovalForAll",
      "outputs": [],
      "stateMutability": "nonpayable",
      "type": "function"
    },
    {
      "inputs": [
        {
          "internalType": "bytes4",
          "name": "interfaceId",
          "type": "bytes4"
        }
      ],
      "name": "supportsInterface",
      "outputs": [
        {
          "internalType": "bool",
          "name": "",
          "type": "bool"
        }
      ],
      "stateMutability": "view",
      "type": "function"
    },
    {
      "inputs": [],
      "name": "symbol",
      "outputs": [
        {
          "internalType": "string",
          "name": "",
          "type": "string"
        }
      ],
      "stateMutability": "view",
      "type": "function"
    },
    {
      "inputs": [
        {
          "internalType": "uint256",
          "name": "tokenId",
          "type": "uint256"
        }
      ],
      "name": "tokenURI",
      "outputs": [
        {
          "internalType": "string",
          "name": "",
          "type": "string"
        }
      ],
      "stateMutability": "view",
      "type": "function"
    },
    {
      "inputs": [
        {
          "internalType": "address",
          "name": "from",
          "type": "address"
        },
        {
          "internalType": "address",
          "name": "to",
          "type": "address"
        },
        {
          "internalType": "uint256",
          "name": "tokenId",
          "type": "uint256"
        }
      ],
      "name": "transferFrom",
      "outputs": [],
      "stateMutability": "nonpayable",
      "type": "function"
    },
    {
      "inputs": [
        {
          "internalType": "address",
          "name": "newOwner",
          "type": "address"
        }
      ],
      "name": "transferOwnership",
      "outputs": [],
      "stateMutability": "nonpayable",
      "type": "function"
    }
  ],
  "bytecode": "0x60806040523480156200001157600080fd5b506040518060400160405280600781526020017f4d79546f6b656e000000000000000000000000000000000000000000000000008152506040518060400160405280600381526020017f4d544b0000000000000000000000000000000000000000000000000000000000815250816000908051906020019062000096929190620001a6565b508060019080519060200190620000af929190620001a6565b505050620000d2620000c6620000d860201b60201c565b620000e060201b60201c565b620002bb565b600033905090565b6000600660009054906101000a900473ffffffffffffffffffffffffffffffffffffffff16905081600660006101000a81548173ffffffffffffffffffffffffffffffffffffffff021916908373ffffffffffffffffffffffffffffffffffffffff1602179055508173ffffffffffffffffffffffffffffffffffffffff168173ffffffffffffffffffffffffffffffffffffffff167f8be0079c531659141344cd1fd0a4f28419497f9722a3daafe3b4186f6b6457e060405160405180910390a35050565b828054620001b49062000256565b90600052602060002090601f016020900481019282620001d8576000855562000224565b82601f10620001f357805160ff191683800117855562000224565b8280016001018555821562000224579182015b828111156200022357825182559160200191906001019062000206565b5b50905062000233919062000237565b5090565b5b808211156200025257600081600090555060010162000238565b5090565b600060028204905060018216806200026f57607f821691505b602082108114156200028657620002856200028c565b5b50919050565b7f4e487b7100000000000000000000000000000000000000000000000000000000600052602260045260246000fd5b612dde80620002cb6000396000f3fe608060405234801561001057600080fd5b50600436106101165760003560e01c8063715018a6116100a2578063a22cb46511610071578063a22cb465146102cb578063b88d4fde146102e7578063c87b56dd14610303578063e985e9c514610333578063f2fde38b1461036357610116565b8063715018a6146102695780638da5cb5b1461027357806395d89b4114610291578063a1448194146102af57610116565b806323b872dd116100e957806323b872dd146101b557806342842e0e146101d157806342966c68146101ed5780636352211e1461020957806370a082311461023957610116565b806301ffc9a71461011b57806306fdde031461014b578063081812fc14610169578063095ea7b314610199575b600080fd5b61013560048036038101906101309190611e50565b61037f565b6040516101429190612279565b60405180910390f35b610153610461565b6040516101609190612294565b60405180910390f35b610183600480360381019061017e9190611ea2565b6104f3565b6040516101909190612212565b60405180910390f35b6101b360048036038101906101ae9190611e14565b610578565b005b6101cf60048036038101906101ca9190611d0e565b610690565b005b6101eb60048036038101906101e69190611d0e565b6106f0565b005b61020760048036038101906102029190611ea2565b610710565b005b610223600480360381019061021e9190611ea2565b61076c565b6040516102309190612212565b60405180910390f35b610253600480360381019061024e9190611ca9565b61081e565b60405161026091906124d6565b60405180910390f35b6102716108d6565b005b61027b61095e565b6040516102889190612212565b60405180910390f35b610299610988565b6040516102a69190612294565b60405180910390f35b6102c960048036038101906102c49190611e14565b610a1a565b005b6102e560048036038101906102e09190611dd8565b610aa4565b005b61030160048036038101906102fc9190611d5d565b610aba565b005b61031d60048036038101906103189190611ea2565b610b1c565b60405161032a9190612294565b60405180910390f35b61034d60048036038101906103489190611cd2565b610bc3565b60405161035a9190612279565b60405180910390f35b61037d60048036038101906103789190611ca9565b610c57565b005b60007f80ac58cd000000000000000000000000000000000000000000000000000000007bffffffffffffffffffffffffffffffffffffffffffffffffffffffff1916827bffffffffffffffffffffffffffffffffffffffffffffffffffffffff1916148061044a57507f5b5e139f000000000000000000000000000000000000000000000000000000007bffffffffffffffffffffffffffffffffffffffffffffffffffffffff1916827bffffffffffffffffffffffffffffffffffffffffffffffffffffffff1916145b8061045a575061045982610d4f565b5b9050919050565b606060008054610470906126fb565b80601f016020809104026020016040519081016040528092919081815260200182805461049c906126fb565b80156104e95780601f106104be576101008083540402835291602001916104e9565b820191906000526020600020905b8154815290600101906020018083116104cc57829003601f168201915b5050505050905090565b60006104fe82610db9565b61053d576040517f08c379a000000000000000000000000000000000000000000000000000000000815260040161053490612416565b60405180910390fd5b6004600083815260200190815260200160002060009054906101000a900473ffffffffffffffffffffffffffffffffffffffff169050919050565b60006105838261076c565b90508073ffffffffffffffffffffffffffffffffffffffff168373ffffffffffffffffffffffffffffffffffffffff1614156105f4576040517f08c379a00000000000000000000000000000000000000000000000000000000081526004016105eb90612476565b60405180910390fd5b8073ffffffffffffffffffffffffffffffffffffffff16610613610e25565b73ffffffffffffffffffffffffffffffffffffffff16148061064257506106418161063c610e25565b610bc3565b5b610681576040517f08c379a000000000000000000000000000000000000000000000000000000000815260040161067890612396565b60405180910390fd5b61068b8383610e2d565b505050565b6106a161069b610e25565b82610ee6565b6106e0576040517f08c379a00000000000000000000000000000000000000000000000000000000081526004016106d790612496565b60405180910390fd5b6106eb838383610fc4565b505050565b61070b83838360405180602001604052806000815250610aba565b505050565b61072161071b610e25565b82610ee6565b610760576040517f08c379a0000000000000000000000000000000000000000000000000000000008152600401610757906124b6565b60405180910390fd5b6107698161122b565b50565b6000806002600084815260200190815260200160002060009054906101000a900473ffffffffffffffffffffffffffffffffffffffff169050600073ffffffffffffffffffffffffffffffffffffffff168173ffffffffffffffffffffffffffffffffffffffff161415610815576040517f08c379a000000000000000000000000000000000000000000000000000000000815260040161080c906123d6565b60405180910390fd5b80915050919050565b60008073ffffffffffffffffffffffffffffffffffffffff168273ffffffffffffffffffffffffffffffffffffffff16141561088f576040517f08c379a0000000000000000000000000000000000000000000000000000000008152600401610886906123b6565b60405180910390fd5b600360008373ffffffffffffffffffffffffffffffffffffffff1673ffffffffffffffffffffffffffffffffffffffff168152602001908152602001600020549050919050565b6108de610e25565b73ffffffffffffffffffffffffffffffffffffffff166108fc61095e565b73ffffffffffffffffffffffffffffffffffffffff1614610952576040517f08c379a000000000000000000000000000000000000000000000000000000000815260040161094990612436565b60405180910390fd5b61095c6000611348565b565b6000600660009054906101000a900473ffffffffffffffffffffffffffffffffffffffff16905090565b606060018054610997906126fb565b80601f01602080910402602001604051908101604052809291908181526020018280546109c3906126fb565b8015610a105780601f106109e557610100808354040283529160200191610a10565b820191906000526020600020905b8154815290600101906020018083116109f357829003601f168201915b5050505050905090565b610a22610e25565b73ffffffffffffffffffffffffffffffffffffffff16610a4061095e565b73ffffffffffffffffffffffffffffffffffffffff1614610a96576040517f08c379a0000000000000000000000000000000000000000000000000000000008152600401610a8d90612436565b60405180910390fd5b610aa0828261140e565b5050565b610ab6610aaf610e25565b838361142c565b5050565b610acb610ac5610e25565b83610ee6565b610b0a576040517f08c379a0000000000000000000000000000000000000000000000000000000008152600401610b0190612496565b60405180910390fd5b610b1684848484611599565b50505050565b6060610b2782610db9565b610b66576040517f08c379a0000000000000000000000000000000000000000000000000000000008152600401610b5d90612456565b60405180910390fd5b6000610b706115f5565b90506000815111610b905760405180602001604052806000815250610bbb565b80610b9a84611632565b604051602001610bab9291906121ee565b6040516020818303038152906040525b915050919050565b6000600560008473ffffffffffffffffffffffffffffffffffffffff1673ffffffffffffffffffffffffffffffffffffffff16815260200190815260200160002060008373ffffffffffffffffffffffffffffffffffffffff1673ffffffffffffffffffffffffffffffffffffffff16815260200190815260200160002060009054906101000a900460ff16905092915050565b610c5f610e25565b73ffffffffffffffffffffffffffffffffffffffff16610c7d61095e565b73ffffffffffffffffffffffffffffffffffffffff1614610cd3576040517f08c379a0000000000000000000000000000000000000000000000000000000008152600401610cca90612436565b60405180910390fd5b600073ffffffffffffffffffffffffffffffffffffffff168173ffffffffffffffffffffffffffffffffffffffff161415610d43576040517f08c379a0000000000000000000000000000000000000000000000000000000008152600401610d3a906122d6565b60405180910390fd5b610d4c81611348565b50565b60007f01ffc9a7000000000000000000000000000000000000000000000000000000007bffffffffffffffffffffffffffffffffffffffffffffffffffffffff1916827bffffffffffffffffffffffffffffffffffffffffffffffffffffffff1916149050919050565b60008073ffffffffffffffffffffffffffffffffffffffff166002600084815260200190815260200160002060009054906101000a900473ffffffffffffffffffffffffffffffffffffffff1673ffffffffffffffffffffffffffffffffffffffff1614159050919050565b600033905090565b816004600083815260200190815260200160002060006101000a81548173ffffffffffffffffffffffffffffffffffffffff021916908373ffffffffffffffffffffffffffffffffffffffff160217905550808273ffffffffffffffffffffffffffffffffffffffff16610ea08361076c565b73ffffffffffffffffffffffffffffffffffffffff167f8c5be1e5ebec7d5bd14f71427d1e84f3dd0314c0f7b2291e5b200ac8c7c3b92560405160405180910390a45050565b6000610ef182610db9565b610f30576040517f08c379a0000000000000000000000000000000000000000000000000000000008152600401610f2790612376565b60405180910390fd5b6000610f3b8361076c565b90508073ffffffffffffffffffffffffffffffffffffffff168473ffffffffffffffffffffffffffffffffffffffff161480610faa57508373ffffffffffffffffffffffffffffffffffffffff16610f92846104f3565b73ffffffffffffffffffffffffffffffffffffffff16145b80610fbb5750610fba8185610bc3565b5b91505092915050565b8273ffffffffffffffffffffffffffffffffffffffff16610fe48261076c565b73ffffffffffffffffffffffffffffffffffffffff161461103a576040517f08c379a0000000000000000000000000000000000000000000000000000000008152600401611031906122f6565b60405180910390fd5b600073ffffffffffffffffffffffffffffffffffffffff168273ffffffffffffffffffffffffffffffffffffffff1614156110aa576040517f08c379a00000000000000000000000000000000000000000000000000000000081526004016110a190612336565b60405180910390fd5b6110b58383836117df565b6110c0600082610e2d565b6001600360008573ffffffffffffffffffffffffffffffffffffffff1673ffffffffffffffffffffffffffffffffffffffff16815260200190815260200160002060008282546111109190612611565b925050819055506001600360008473ffffffffffffffffffffffffffffffffffffffff1673ffffffffffffffffffffffffffffffffffffffff1681526020019081526020016000206000828254611167919061258a565b92505081905550816002600083815260200190815260200160002060006101000a81548173ffffffffffffffffffffffffffffffffffffffff021916908373ffffffffffffffffffffffffffffffffffffffff160217905550808273ffffffffffffffffffffffffffffffffffffffff168473ffffffffffffffffffffffffffffffffffffffff167fddf252ad1be2c89b69c2b068fc378daa952ba7f163c4a11628f55a4df523b3ef60405160405180910390a46112268383836117e4565b505050565b60006112368261076c565b9050611244816000846117df565b61124f600083610e2d565b6001600360008373ffffffffffffffffffffffffffffffffffffffff1673ffffffffffffffffffffffffffffffffffffffff168152602001908152602001600020600082825461129f9190612611565b925050819055506002600083815260200190815260200160002060006101000a81549073ffffffffffffffffffffffffffffffffffffffff021916905581600073ffffffffffffffffffffffffffffffffffffffff168273ffffffffffffffffffffffffffffffffffffffff167fddf252ad1be2c89b69c2b068fc378daa952ba7f163c4a11628f55a4df523b3ef60405160405180910390a4611344816000846117e4565b5050565b6000600660009054906101000a900473ffffffffffffffffffffffffffffffffffffffff16905081600660006101000a81548173ffffffffffffffffffffffffffffffffffffffff021916908373ffffffffffffffffffffffffffffffffffffffff1602179055508173ffffffffffffffffffffffffffffffffffffffff168173ffffffffffffffffffffffffffffffffffffffff167f8be0079c531659141344cd1fd0a4f28419497f9722a3daafe3b4186f6b6457e060405160405180910390a35050565b6114288282604051806020016040528060008152506117e9565b5050565b8173ffffffffffffffffffffffffffffffffffffffff168373ffffffffffffffffffffffffffffffffffffffff16141561149b576040517f08c379a000000000000000000000000000000000000000000000000000000000815260040161149290612356565b60405180910390fd5b80600560008573ffffffffffffffffffffffffffffffffffffffff1673ffffffffffffffffffffffffffffffffffffffff16815260200190815260200160002060008473ffffffffffffffffffffffffffffffffffffffff1673ffffffffffffffffffffffffffffffffffffffff16815260200190815260200160002060006101000a81548160ff0219169083151502179055508173ffffffffffffffffffffffffffffffffffffffff168373ffffffffffffffffffffffffffffffffffffffff167f17307eab39ab6107e8899845ad3d59bd9653f200f220920489ca2b5937696c318360405161158c9190612279565b60405180910390a3505050565b6115a4848484610fc4565b6115b084848484611844565b6115ef576040517f08c379a00000000000000000000000000000000000000000000000000000000081526004016115e6906122b6565b60405180910390fd5b50505050565b60606040518060400160405280600481526020017f7465737400000000000000000000000000000000000000000000000000000000815250905090565b6060600082141561167a576040518060400160405280600181526020017f300000000000000000000000000000000000000000000000000000000000000081525090506117da565b600082905060005b600082146116ac5780806116959061275e565b915050600a826116a591906125e0565b9150611682565b60008167ffffffffffffffff8111156116ee577f4e487b7100000000000000000000000000000000000000000000000000000000600052604160045260246000fd5b6040519080825280601f01601f1916602001820160405280156117205781602001600182028036833780820191505090505b5090505b600085146117d3576001826117399190612611565b9150600a8561174891906127a7565b6030611754919061258a565b60f81b818381518110611790577f4e487b7100000000000000000000000000000000000000000000000000000000600052603260045260246000fd5b60200101907effffffffffffffffffffffffffffffffffffffffffffffffffffffffffffff1916908160001a905350600a856117cc91906125e0565b9450611724565b8093505050505b919050565b505050565b505050565b6117f383836119db565b6118006000848484611844565b61183f576040517f08c379a0000000000000000000000000000000000000000000000000000000008152600401611836906122b6565b60405180910390fd5b505050565b60006118658473ffffffffffffffffffffffffffffffffffffffff16611bb5565b156119ce578373ffffffffffffffffffffffffffffffffffffffff1663150b7a0261188e610e25565b8786866040518563ffffffff1660e01b81526004016118b0949392919061222d565b602060405180830381600087803b1580156118ca57600080fd5b505af19250505080156118fb57506040513d601f19601f820116820180604052508101906118f89190611e79565b60015b61197e573d806000811461192b576040519150601f19603f3d011682016040523d82523d6000602084013e611930565b606091505b50600081511415611976576040517f08c379a000000000000000000000000000000000000000000000000000000000815260040161196d906122b6565b60405180910390fd5b805181602001fd5b63150b7a0260e01b7bffffffffffffffffffffffffffffffffffffffffffffffffffffffff1916817bffffffffffffffffffffffffffffffffffffffffffffffffffffffff1916149150506119d3565b600190505b949350505050565b600073ffffffffffffffffffffffffffffffffffffffff168273ffffffffffffffffffffffffffffffffffffffff161415611a4b576040517f08c379a0000000000000000000000000000000000000000000000000000000008152600401611a42906123f6565b60405180910390fd5b611a5481610db9565b15611a94576040517f08c379a0000000000000000000000000000000000000000000000000000000008152600401611a8b90612316565b60405180910390fd5b611aa0600083836117df565b6001600360008473ffffffffffffffffffffffffffffffffffffffff1673ffffffffffffffffffffffffffffffffffffffff1681526020019081526020016000206000828254611af0919061258a565b92505081905550816002600083815260200190815260200160002060006101000a81548173ffffffffffffffffffffffffffffffffffffffff021916908373ffffffffffffffffffffffffffffffffffffffff160217905550808273ffffffffffffffffffffffffffffffffffffffff16600073ffffffffffffffffffffffffffffffffffffffff167fddf252ad1be2c89b69c2b068fc378daa952ba7f163c4a11628f55a4df523b3ef60405160405180910390a4611bb1600083836117e4565b5050565b6000808273ffffffffffffffffffffffffffffffffffffffff163b119050919050565b6000611beb611be684612516565b6124f1565b905082815260208101848484011115611c0357600080fd5b611c0e8482856126b9565b509392505050565b600081359050611c2581612d4c565b92915050565b600081359050611c3a81612d63565b92915050565b600081359050611c4f81612d7a565b92915050565b600081519050611c6481612d7a565b92915050565b600082601f830112611c7b57600080fd5b8135611c8b848260208601611bd8565b91505092915050565b600081359050611ca381612d91565b92915050565b600060208284031215611cbb57600080fd5b6000611cc984828501611c16565b91505092915050565b60008060408385031215611ce557600080fd5b6000611cf385828601611c16565b9250506020611d0485828601611c16565b9150509250929050565b600080600060608486031215611d2357600080fd5b6000611d3186828701611c16565b9350506020611d4286828701611c16565b9250506040611d5386828701611c94565b9150509250925092565b60008060008060808587031215611d7357600080fd5b6000611d8187828801611c16565b9450506020611d9287828801611c16565b9350506040611da387828801611c94565b925050606085013567ffffffffffffffff811115611dc057600080fd5b611dcc87828801611c6a565b91505092959194509250565b60008060408385031215611deb57600080fd5b6000611df985828601611c16565b9250506020611e0a85828601611c2b565b9150509250929050565b60008060408385031215611e2757600080fd5b6000611e3585828601611c16565b9250506020611e4685828601611c94565b9150509250929050565b600060208284031215611e6257600080fd5b6000611e7084828501611c40565b91505092915050565b600060208284031215611e8b57600080fd5b6000611e9984828501611c55565b91505092915050565b600060208284031215611eb457600080fd5b6000611ec284828501611c94565b91505092915050565b611ed481612645565b82525050565b611ee381612657565b82525050565b6000611ef482612547565b611efe818561255d565b9350611f0e8185602086016126c8565b611f1781612894565b840191505092915050565b6000611f2d82612552565b611f37818561256e565b9350611f478185602086016126c8565b611f5081612894565b840191505092915050565b6000611f6682612552565b611f70818561257f565b9350611f808185602086016126c8565b80840191505092915050565b6000611f9960328361256e565b9150611fa4826128a5565b604082019050919050565b6000611fbc60268361256e565b9150611fc7826128f4565b604082019050919050565b6000611fdf60258361256e565b9150611fea82612943565b604082019050919050565b6000612002601c8361256e565b915061200d82612992565b602082019050919050565b600061202560248361256e565b9150612030826129bb565b604082019050919050565b600061204860198361256e565b915061205382612a0a565b602082019050919050565b600061206b602c8361256e565b915061207682612a33565b604082019050919050565b600061208e60388361256e565b915061209982612a82565b604082019050919050565b60006120b1602a8361256e565b91506120bc82612ad1565b604082019050919050565b60006120d460298361256e565b91506120df82612b20565b604082019050919050565b60006120f760208361256e565b915061210282612b6f565b602082019050919050565b600061211a602c8361256e565b915061212582612b98565b604082019050919050565b600061213d60208361256e565b915061214882612be7565b602082019050919050565b6000612160602f8361256e565b915061216b82612c10565b604082019050919050565b600061218360218361256e565b915061218e82612c5f565b604082019050919050565b60006121a660318361256e565b91506121b182612cae565b604082019050919050565b60006121c960308361256e565b91506121d482612cfd565b604082019050919050565b6121e8816126af565b82525050565b60006121fa8285611f5b565b91506122068284611f5b565b91508190509392505050565b60006020820190506122276000830184611ecb565b92915050565b60006080820190506122426000830187611ecb565b61224f6020830186611ecb565b61225c60408301856121df565b818103606083015261226e8184611ee9565b905095945050505050565b600060208201905061228e6000830184611eda565b92915050565b600060208201905081810360008301526122ae8184611f22565b905092915050565b600060208201905081810360008301526122cf81611f8c565b9050919050565b600060208201905081810360008301526122ef81611faf565b9050919050565b6000602082019050818103600083015261230f81611fd2565b9050919050565b6000602082019050818103600083015261232f81611ff5565b9050919050565b6000602082019050818103600083015261234f81612018565b9050919050565b6000602082019050818103600083015261236f8161203b565b9050919050565b6000602082019050818103600083015261238f8161205e565b9050919050565b600060208201905081810360008301526123af81612081565b9050919050565b600060208201905081810360008301526123cf816120a4565b9050919050565b600060208201905081810360008301526123ef816120c7565b9050919050565b6000602082019050818103600083015261240f816120ea565b9050919050565b6000602082019050818103600083015261242f8161210d565b9050919050565b6000602082019050818103600083015261244f81612130565b9050919050565b6000602082019050818103600083015261246f81612153565b9050919050565b6000602082019050818103600083015261248f81612176565b9050919050565b600060208201905081810360008301526124af81612199565b9050919050565b600060208201905081810360008301526124cf816121bc565b9050919050565b60006020820190506124eb60008301846121df565b92915050565b60006124fb61250c565b9050612507828261272d565b919050565b6000604051905090565b600067ffffffffffffffff82111561253157612530612865565b5b61253a82612894565b9050602081019050919050565b600081519050919050565b600081519050919050565b600082825260208201905092915050565b600082825260208201905092915050565b600081905092915050565b6000612595826126af565b91506125a0836126af565b9250827fffffffffffffffffffffffffffffffffffffffffffffffffffffffffffffffff038211156125d5576125d46127d8565b5b828201905092915050565b60006125eb826126af565b91506125f6836126af565b92508261260657612605612807565b5b828204905092915050565b600061261c826126af565b9150612627836126af565b92508282101561263a576126396127d8565b5b828203905092915050565b60006126508261268f565b9050919050565b60008115159050919050565b60007fffffffff0000000000000000000000000000000000000000000000000000000082169050919050565b600073ffffffffffffffffffffffffffffffffffffffff82169050919050565b6000819050919050565b82818337600083830152505050565b60005b838110156126e65780820151818401526020810190506126cb565b838111156126f5576000848401525b50505050565b6000600282049050600182168061271357607f821691505b6020821081141561272757612726612836565b5b50919050565b61273682612894565b810181811067ffffffffffffffff8211171561275557612754612865565b5b80604052505050565b6000612769826126af565b91507fffffffffffffffffffffffffffffffffffffffffffffffffffffffffffffffff82141561279c5761279b6127d8565b5b600182019050919050565b60006127b2826126af565b91506127bd836126af565b9250826127cd576127cc612807565b5b828206905092915050565b7f4e487b7100000000000000000000000000000000000000000000000000000000600052601160045260246000fd5b7f4e487b7100000000000000000000000000000000000000000000000000000000600052601260045260246000fd5b7f4e487b7100000000000000000000000000000000000000000000000000000000600052602260045260246000fd5b7f4e487b7100000000000000000000000000000000000000000000000000000000600052604160045260246000fd5b6000601f19601f8301169050919050565b7f4552433732313a207472616e7366657220746f206e6f6e20455243373231526560008201527f63656976657220696d706c656d656e7465720000000000000000000000000000602082015250565b7f4f776e61626c653a206e6577206f776e657220697320746865207a65726f206160008201527f6464726573730000000000000000000000000000000000000000000000000000602082015250565b7f4552433732313a207472616e736665722066726f6d20696e636f72726563742060008201527f6f776e6572000000000000000000000000000000000000000000000000000000602082015250565b7f4552433732313a20746f6b656e20616c7265616479206d696e74656400000000600082015250565b7f4552433732313a207472616e7366657220746f20746865207a65726f2061646460008201527f7265737300000000000000000000000000000000000000000000000000000000602082015250565b7f4552433732313a20617070726f766520746f2063616c6c657200000000000000600082015250565b7f4552433732313a206f70657261746f7220717565727920666f72206e6f6e657860008201527f697374656e7420746f6b656e0000000000000000000000000000000000000000602082015250565b7f4552433732313a20617070726f76652063616c6c6572206973206e6f74206f7760008201527f6e6572206e6f7220617070726f76656420666f7220616c6c0000000000000000602082015250565b7f4552433732313a2062616c616e636520717565727920666f7220746865207a6560008201527f726f206164647265737300000000000000000000000000000000000000000000602082015250565b7f4552433732313a206f776e657220717565727920666f72206e6f6e657869737460008201527f656e7420746f6b656e0000000000000000000000000000000000000000000000602082015250565b7f4552433732313a206d696e7420746f20746865207a65726f2061646472657373600082015250565b7f4552433732313a20617070726f76656420717565727920666f72206e6f6e657860008201527f697374656e7420746f6b656e0000000000000000000000000000000000000000602082015250565b7f4f776e61626c653a2063616c6c6572206973206e6f7420746865206f776e6572600082015250565b7f4552433732314d657461646174613a2055524920717565727920666f72206e6f60008201527f6e6578697374656e7420746f6b656e0000000000000000000000000000000000602082015250565b7f4552433732313a20617070726f76616c20746f2063757272656e74206f776e6560008201527f7200000000000000000000000000000000000000000000000000000000000000602082015250565b7f4552433732313a207472616e736665722063616c6c6572206973206e6f74206f60008201527f776e6572206e6f7220617070726f766564000000000000000000000000000000602082015250565b7f4552433732314275726e61626c653a2063616c6c6572206973206e6f74206f7760008201527f6e6572206e6f7220617070726f76656400000000000000000000000000000000602082015250565b612d5581612645565b8114612d6057600080fd5b50565b612d6c81612657565b8114612d7757600080fd5b50565b612d8381612663565b8114612d8e57600080fd5b50565b612d9a816126af565b8114612da557600080fd5b5056fea26469706673582212204ea2b30eae16a8479f67cd04eda91091861f3ab356c843a84044e594c51c914e64736f6c63430008040033",
  "linkReferences": {},
  "deployedLinkReferences": {}
}